:100C0B0054445F496E69740D0A0055534243533A7D
:100C1B0025620D0A00455A5553425F446973636F51
:100C2B006E0D0A005365747570436F6D6D616E6464
:100C3B002025620D0A0000010202030304040505CE
:1004B000E4F513F512F511F510C203C200C202C231
:1004C00001120D377BFF7A0C790B1202CB7E097F6C
:1004D000008E238F24752B09752C12752109752226
:1004E0001C752909752A43752D09752E6AEE54C0AD
:1004F00070030205BA7514007515808E168F17C328
:10050000748C9FFF74099ECF2402CF3400FEE48FC9
:100510000F8E0EF50DF50CF50BF50AF509F508AF84
:100520000FAE0EAD0DAC0CAB0BAA0AA909A808C3FF
:100530001207795033E517250BF582E516350AF5D4
:1005400083E0FFE515250BF582E514350AF583EF09
:10055000F0E50B2401F50BE4350AF50AE43509F55D
:1005600009E43508F50880B785142385152474003F
:100570002480FF740934FFFEC3E52C9FF52CE52B86
:100580009EF52BC3E5269FF526E5259EF525C3E5BB
:10059000289FF528E5279EF527C3E5229FF522E54C
:1005A000219EF521C3E52A9FF52AE5299EF529C359
:1005B000E52E9FF52EE52D9EF52DD2E843D820900F
:1005C000E668E04409F090E65CE0443DF0D2AF908C
:1005D000E680E0151FA81FF67BFF7A0C7915120242
:1005E000CB051F90E680E020E10E7BFF7A0C79209E
:1005F0001202CBD2041207D190E680E0151FA81F8B
:10060000F67BFF7A0C79151202CB051F90E680E08D
:1006100054F7F0538EF8C20312098E300105120010
:1006200080C2013003F21208FE50EDC203120DBF6A
:1006300020001690E682E030E704E020E1EF90E64B
:1006400082E030E604E020E0E4120D68120E04803F
:01065000C7E2
:0B0EEE0090E50DE030E402C322D322A7
:1000800090E6B9E0151FA81FF67BFF7A0C792F12B6
:1000900002CB051F90E6B9E0700302015314700310
:1000A0000201D024FE700302025324FB70030201FC
:1000B0004D14700302014714700302013B147003D6
:1000C000020141240560030202B7120F1E40030221
:1000D00002C390E6BBE024FE602714603824FD6074
:1000E0001114602724067050E52390E6B3F0E52450
:1000F000803C120EEE503EE52B90E6B3F0E52C80EE
:100100002DE52590E6B3F0E5268023E52790E6B3BC
:10011000F0E528801990E6BAE0FF120D94AA06A92E
:10012000077B01EA494B600DEE90E6B3F0EF90E6F5
:10013000B4F00202C30202B20202B2120EBD020207
:10014000C3120F010202C3120EF90202C3120EAB58
:100150000202C3120F2040030202C390E6B8E0245B
:100160007F601514601924027063A200E43325E057
:10017000FFA202E4334F8041E490E740F0803F90DB
:10018000E6BCE0547EFF7E00E0D394807C00400417
:100190007D0180027D00EC4EFEED4F2441F582741E
:1001A0000C3EF583E493FF3395E0FEEF24A1FFEED0
:1001B00034E68F82F583E0540190E740F0E4A3F049
:1001C00090E68AF090E68B7402F00202C30202B25B
:1001D000120F2240030202C390E6B8E024FE60162C
:1001E000240260030202C390E6BAE0B40105C20033
:1001F0000202C30202B290E6BAE0705590E6BCE09B
:10020000547EFF7E00E0D394807C0040047D01801A
:10021000027D00EC4EFEED4F2441F582740C3EF55C
:1002200083E493FF3395E0FEEF24A1FFEE34E68FE5
:1002300082F583E054FEF090E6BCE0548013131383
:10024000541FFFE0540F2F90E683F0E04420F0802D
:1002500072805F120F24506B90E6B8E024FE6019A4
:100260002402704E90E6BAE0B40104D200805490AB
:10027000E6BAE06402604C803990E6BCE0547EFF50
:100280007E00E0D394807C0040047D0180027D00EC
:10029000EC4EFEED4F2441F582740C3EF583E49361
:1002A000FF3395E0FEEF24A1FFEE34E68F82F58365
:1002B000800D90E6A08008120651500790E6A0E05D
:0A02C0004401F090E6A0E04480F055
:0102CA002211
:03003300020F1A9F
:040F1A0053D8EF3287
:100900001201000200000040470502100000010231
:1009100000010A0600020000004001000902270051
:10092000010100A0320904000003FF0000000705D8
:10093000810340000A07050602000200070588023D
:1009400000020009022700010100A0320904000092
:1009500003FF0000000705810340000A07050602A7
:10096000400000070588024000000403090410034A
:1009700043007900700072006500730073000E037D
:0E0980004F00530052004600580032000000A5
:050F15000D0A2D3E0055
:100DE40075C83475CBFF75CAD975985AD29990E6EF
:100DF40000E054E74410F07BFF7A0F7915020CC52C
:060E210014F9120735FF71
:100E2700151FA81FA6073099FDC299A81FE6F599B7
:030E3700051F2272
:100E9700AE07EEC3940AEE5004243080022437FFD5
:040EA700120E2722DE
:100ECF00AD07EDC4540FFF120E97ED540FFF020E36
:010EDF00977B
:0E0EE000AB07AA06AF02120ECFAF03020ECF71
:100CC500151F151F151FA81FA60308A60208A601B4
:100CD500A81F860308E6FA08E6F91207356013A887
:100CE5001F8603080806E6188602700106120E2103
:090CF50080DE051F051F051F220A
:1002CB00151F151F151FA81FA60308A60208A601B8
:0602DB00E51F24F4F51FED
:1002E1002407F8E4F608F6E51F240C2403F9E433A7
:1002F100FAE51F2409F8760008A60208A601E51F01
:10030100240CF8860308E6FA08E6F9120735FF70AF
:100311000302049F64256022E51F240CF88603086C
:100321000806E6188602700106120E21E51F240751
:10033100F80806E61870C70680C4E51F240CF80803
:1003410008740126F618E436F6E51F240CF8860336
:1003510008E6FA08E6F9120735FE70147F25120E39
:1003610027E51F2407F80806E61870010602049F16
:10037100EE249E700302040D14605F24EB700302EF
:1003810004322405600302046BE51F2409F8860387
:100391000808E6F92403F618E6FA3400F612078A8B
:1003A100A81FA60308A60208A601A81F860308E63F
:1003B100FA08E6F9120735FF700302048D120E27C1
:1003C100E51F2407F80806E618700106A81F0808AB
:1003D100740126F618E436F680D0E51F2409F88664
:1003E10003080806E618860270010614F91207359B
:1003F100FFE51F2403F8A607E6FF120E27E51F24D9
:1004010007F80806E61870010602048DE51F2409A5
:10041100F88603080806E618860270010614F91228
:100421000735FFE51F2404F8A607E6FF120ECF806B
:100431004DE51F2409F886030808E6F92402F61899
:10044100E6FA3400F612074EFFE51F2405F8A6F080
:1004510008A607E51F2405F8E6FE08E6FF120EE0F0
:10046100E51F2407F8087404801C7F25120E27E578
:100471001F240CF8860308E6FA08E6120E22E51F8F
:100481002407F808740226F618E436F6E51F240C52
:10049100F80808740126F618E436F60202FFE51F93
:0804A1002407F8E6FE08E6FF5F
:0704A900E51F240FF51F22DF
:100B710053657269616C20706F727420696E69745B
:100B810069616C697A65640D0A00555342205265AA
:100B91007365742049535220747269676765726581
:100BA100640D0A005553422053757370656E6420BD
:100BB100495352207472696767657265640D0A0052
:100BC1006045100153572076657273696F6E206915
:100BD100733A20312E302E302E300A466C65782043
:100BE10076657273696F6E2069733A20312E302EEB
:100BF100302E300A494D45492069733A203132334C
:090C0100343536373839300A0069
:060F0900E4901046F02206
:060F0F00E4901000F02246
:100C4B00E490E68AF000000090E68B04F0000000D0
:100C5B007F647E001208B890E740E030E008E05473
:100C6B00F0F452B0800890E740E054F042B0E5B0A9
:0D0C7B00C4540FF4901000F0E0540FF0226C
:100E3A00901000E090E740F0E490E68AF0000000AD
:090E4A0090E68B04F00000002288
:100CFE0090E61074B0F090E611F000000090E6144B
:100D0E0074A2F000000090E61574E0F0000000E41C
:100D1E0090E613F090E612F000000090E6997480D1
:090D2E00F0000000F043AF0122C7
:100D370090E605E054FDF0D200120DE47BFF7A0B3C
:100D470079711202CB90E601E04440F0120F0F12C6
:100D57000F0975B2F075B5FFE4F5B375B0F0020C85
:010D6700FE8D
:10098E0090E6A2E020E12675B2F075B3F0E580F4B2
:10099E005403C454F0FFE590F4540F2F901046F01A
:1009AE00E0600A90E7C0F090E68F7401F0E5AA20AF
:1009BE00E45AE5AA20E75574F8F59A7400F59B748D
:1009CE00FCF59D7400F59E90E698E0FE90E699E0A9
:1009DE007C002400FFEC3EFEE4FDC3ED9FEC9E5038
:1009EE000F90E67BE090E67CF00DBD00010C80EAF6
:1009FE0090E698E090E69CF000000090E699E0907A
:0C0A0E00E69DF000000090E6997480F076
:010A1A0022B9
:0208FE00D32203
:100E040053B0F0740525B0F5B0E580540F24F0F527
:0C0E140080901000E0C454F0F452B0D301
:010E200022AF
:020F1E00D322DC
:080EF90090E6BAE0F530D322C7
:100EAB0090E740E530F0E490E68AF090E68B04F0B2
:020EBB00D32240
:080F010090E6BAE0F52FD322BF
:100EBD0090E740E52FF0E490E68AF090E68B04F0A1
:020ECD00D3222E
:020F2000D322DA
:020F2200D322D8
:020F2400D322D6
:1006510090E6B9E0242F602024FA603414602B2442
:10066100FC6033146049240D600302073190E604F5
:10067100E0F518431880800990E604E0F518531856
:100681007F000000E518F0020733120C4B0207331C
:10069100120E3A02073390E7407444F0E490E68A80
:1006A100F000000090E68B04F000000002073375B3
:1006B1001900751A447B017A107901E51A45196010
:1006C1007190E6A0E020E1F9C3E51A9440E51994A0
:1006D10000500885191B851A1C8006751B00751CA6
:1006E10040E4FFFEC3EF951CEE951B501DE92FF56D
:1006F10082EA3EF583E0FD74402FF582E434E7F5AC
:1007010083EDF00FBF00010E80DAE490E68AF0007D
:10071100000090E68BE51CF000000029F9E51B3A8A
:10072100FAC3E51A951CF51AE519951BF519808B85
:03073100D322C30D
:0107340022A2
:100E5300C0E0C083C082D2015391EF90E65D74017C
:080E6300F0D082D083D0E03210
:100E6B00C0E0C083C0825391EF90E65D7404F0D074
:060E7B0082D083D0E032BA
:100E8100C0E0C083C0825391EF90E65D7402F0D060
:060E910082D083D0E032A4
:100AA700C0E0C0F0C083C082C0D075D000C000C015
:100AB70001C002C003C004C005C006C0077BFF7A9F
:100AC7000B798B1202CB852925852A2685268285D7
:100AD7002583A37402F0852127852228852882850E
:100AE7002783A37407F05391EF90E65D7410F0D05D
:100AF70007D006D005D004D003D002D001D000D053
:0A0B0700D0D082D083D0F0D0E032CD
:100B1100C0E0C0F0C083C082C0D075D000C000C0AA
:100B210001C002C003C004C005C006C0077BFF7A34
:100B31000B79A51202CB43B0F053B0F0740E25B07F
:100B4100F5B0E580540F24E0F580D2035391EF9086
:100B5100E65D7408F0D007D006D005D004D003D0EC
:100B610002D001D000D0D0D082D083D0F0D0E032FA
:100C8800C0E0C083C08290E680E030E7208521255F
:100C9800852226852682852583A37402F085292747
:100CA800852A28852882852783A37407F05391EF26
:0D0CB80090E65D7420F0D082D083D0E03251
:010F26003298
:010F27003297
:010F28003296
:010F29003295
:010F2A003294
:010F2B003293
:010F2C003292
:010F2D003291
:010F2E003290
:010F2F00328F
:010F3000328E
:010F3100328D
:010F3200328C
:010F3300328B
:010F3400328A
:010F35003289
:010F36003288
:010F37003287
:010F38003286
:010F39003285
:010F3A003284
:010F3B003283
:010F3C003282
:010F3D003281
:010F3E003280
:010F3F00327F
:010F4000327E
:010F4100327D
:010F4200327C
:010F4300327B
:010F4400327A
:010F45003279
:010F46003278
:010F47003277
:010F48003276
:010F49003275
:100D680090E682E030E004E020E60B90E682E03096
:100D7800E119E030E71590E680E04401F07F147E49
:0C0D8800001208B890E680E054FEF02253
:1007D10030040990E680E0440AF0800790E680E06A
:1007E1004408F07FDC7E051208B890E65D74FFF0E6
:0F07F10090E65FF05391EF90E680E054F7F0222E
:1008B8008E1D8F1E90E600E054187012E51E24016C
:1008C800FFE4351DC313F51DEF13F51E801590E6E3
:1008D80000E05418FFBF100BE51E25E0F51EE51DCE
:1008E80033F51DE51E151EAE1D7002151D4E600563
:0608F800120DD380EE2278
:020D9400A907AD
:100D9600AE2DAF2E8F828E83A3E064037017AD0154
:100DA60019ED7001228F828E83E07C002FFDEC3ED0
:080DB600FEAF0580DFE4FEFF43
:010DBE002212
:100DBF0090E682E044C0F090E681F04387010000A6
:040DCF0000000022FE
:100DD3007400F58690FDA57C05A3E582458370F933
:010DE30022ED
:03004300020800B0
:03005300020800A0
:10080000020E5300020E8100020E6B00020B11005B
:10081000020AA700020C8800020F2600020F270020
:10082000020F2800020F2900020F2A00020F2B00DE
:10083000020F2C00020F2D00020F2E00020F2F00BE
:10084000020F3000020F2700020F3100020F3200AA
:10085000020F3300020F3400020F3500020F360082
:10086000020F3700020F2700020F2700020F270098
:10087000020F3800020F3900020F3A00020F3B004E
:10088000020F3C00020F3D00020F3E00020F3F002E
:10089000020F4000020F4100020F4200020F43000E
:1008A000020F4400020F4500020F4600020F4700EE
:0808B000020F4800020F49008D
:03000000020A1BD6
:0C0A1B00787FE4F6D8FD758130020A6295
:10073500BB010689828A83E0225002E722BBFE02C2
:09074500E32289828A83E49322F5
:10074E00BB010A89828A83E0F5F0A3E02250068776
:10075E00F009E71922BBFE07E3F5F009E319228938
:0B076E00828A83E493F5F0740193226B
:10077900EB9FF5F0EA9E42F0E99D42F0E89C45F0D6
:01078900224D
:10078A00BB010789828A830207B35005E9F8020789
:10079A00AABBFE05E9F80207BC89828A830207C55B
:100A27000204B0E493A3F8E493A34003F68001F231
:100A370008DFF48029E493A3F85407240CC8C333D0
:100A4700C4540F4420C8834004F456800146F6DF9F
:100A5700E4800B0102040810204080900BC1E47E63
:100A6700019360BCA3FF543F30E509541FFEE49394
:100A7700A360010ECF54C025E060A840B8E493A35B
:100A8700FAE493A3F8E493A3C8C582C8CAC583CA86
:100A9700F0A3C8C582C8CAC583CADFE9DEE780BE3E
:010C0A0000E9
:0907AA00E6FB08E6FA08E6F92274
:0907B300E0FBA3E0FAA3E0F92247
:0907BC00E2FB08E2FA08E2F9226E
:0C07C500E493FB740193FA740293F92290
:00000001FF
